:020000040800F2
:1000000050080020B501000819340008A13200088A
:1000100015340008BD02000811410008000000006E
:10002000000000000000000000000000653600082D
:100030002103000800000000253600087137000881
:10004000CF010008CF010008CF010008CF01000850
:10005000CF010008CF010008CF010008CF01000840
:10006000CF010008CF010008CF010008CF01000830
:10007000CF010008CF010008CF010008C10200082D
:10008000CF010008CF010008CF010008CF01000810
:10009000CF010008CF010008CF010008CF01000800
:1000A000CF010008CF010008CF010008CF010008F0
:1000B000E9370008CF010008CF010008CF01000890
:1000C000CF010008CF010008CF010008CF010008D0
:1000D000CF010008D13F0008CF010008CF01000880
:1000E000CF010008CF010008CF01000800F002F89E
:1000F00000F050F814A696E8000CB244B344DA4578
:1001000001D100F047F8BAE80F000FA696E83000DA
:10011000A5EB040504EB0607AAEB0704A7F101070A
:100120004FEA15154FEA3414A4F10104AC4201D38F
:1001300000F030F813F0010F18BFFB1A43F0010371
:1001400000F001F8DBE718470448000024480000ED
:10015000103A24BF78C878C1FAD8520724BF30C8F3
:1001600030C144BF04680C60704700007047000055
:100170000023002400250026103A28BF78C1FBD8B0
:10018000520728BF30C148BF0B6070471FB51FBD65
:1001900010B510BD00F058F81146FFF7F7FF04F056
:1001A0002BF800F076F803B4FFF7F2FF03BC00F081
:1001B0007DF800000948804709480047FEE7FEE750
:1001C000FEE7FEE7FEE7FEE7FEE7FEE7FEE7FEE707
:1001D00004480549054A064B70470000E53700080A
:1001E000ED000008500200205008002050040020BC
:1001F000500400204FF0000200B513469446964686
:10020000203922BFA0E80C50A0E80C50B1F1200129
:10021000BFF4F7AF090728BFA0E80C5048BF0CC0D7
:100220005DF804EB890028BF40F8042B08BF704735
:1002300048BF20F8022B11F0804F18BF00F8012BA7
:100240007047704770477047754600F02BF8AE4610
:1002500005006946534620F00700854618B020B5D2
:10026000FFF7B6FFBDE820404FF000064FF0000753
:100270004FF000084FF0000BAC46ACE8C009ACE80A
:10028000C009ACE8C009ACE8C00921F007018D46FF
:10029000704710B50446AFF300802046BDE810401B
:1002A000FFF781BF00487047200000200149182057
:1002B000ABBEFEE72600020070470000FFE7FEE746
:1002C00080B540F25410C2F2000000F0EBFD80BD9A
:1002D00084B003900291019200930398C16B026C69
:1002E000012090404860009803990968486003988D
:1002F0004068102809D1FFE70198039909688860D0
:10030000029803990968C86008E00298039909688F
:100310008860019803990968C860FFE704B07047D6
:100320007047000081B0EFF3108072B60090FFE7D5
:10033000FEE7000081B0009040F22821C2F20001E7
:100340000020C86142F21001C4F20201086840F0C6
:1003500004000860086840F04000086001B0704781
:1003600081B0009040F22821C2F200010020C86153
:1003700042F21001C4F20201086840F00200086075
:10038000009842F21402C4F202021060086840F0C1
:100390004000086001B0704782B00190ADF80210D3
:1003A00040F22821C2F200010020C86142F210018F
:1003B000C4F20201086840F001000860BDF80200C4
:1003C0000199088002B0704781B0002000900120A0
:1003D00040B9FFE742F21C00C4F202000068C00707
:1003E00048B915E042F20C00C4F202000068C006F1
:1003F00000280DD5FFE740F22821C2F20001C869AC
:1004000040F00200C861009840F010000090FFE743
:10041000012040B9FFE742F21C00C4F2020000686C
:10042000C00748B915E042F20C00C4F202000068AF
:10043000400700280DD5FFE740F22821C2F2000155
:10044000C86940F00100C861009840F004000090C5
:10045000FFE7002040B9FFE742F21C00C4F20200AF
:100460000068C00750B91CE042F20C00C4F2020060
:10047000006840F20111084213D0FFE740F2282142
:10048000C2F20001C86940F00400C861FFE742F20F
:100490001C01C4F20201086820F001000860FFE7B7
:1004A000FFE7FFE7009840F20111884209D1FFE71A
:1004B00042F21C01C4F20201086820F00100086049
:1004C00006E0009842F20C01C4F202010860FFE766
:1004D000FFE701B07047000080B584B0029001F0E2
:1004E000D1F90190FFE742F20C00C4F2020000686B
:1004F000C007A8B1FFE70298013080B1FFE702987A
:1005000040B1FFE701F0BEF90199401A0299884213
:1005100004D9FFE703208DF80F0065E0FFE7E2E76D
:10052000012040B9FFE742F21C00C4F2020000685B
:10053000C00748B911E042F20C00C4F202000068A2
:100540008006002809D5FFE7FFE742F20C01C4F25C
:10055000020120200860FFE7FFE7012040B9FFE724
:1005600042F21C00C4F202000068C00790BB08E021
:1005700042F20C00C4F202000068C006002829D430
:10058000FFE7002040B9FFE742F21C00C4F202007E
:100590000068C007F0B909E042F20C00C4F20200A2
:1005A000006840F20111084214D1FFE7012040B970
:1005B000FFE742F21C00C4F202000068C00748B91D
:1005C0000EE042F20C00C4F202000068400700286E
:1005D00006D5FFE7FFF7F8FE01208DF80F0003E0D6
:1005E00000208DF80F00FFE79DF80F0004B080BDDC
:1005F00084B003900291019200200090FFE70098E0
:10060000039988420DDAFFE70198009950F821001C
:100610000299009A41F82200FFE70098013000900B
:10062000EDE704B07047000080B58AB009900891EA
:10063000079200F069FF0020009003900799059150
:1006400001210691029003A802A900F037FE00984C
:100650000190FFE701980999884210DAFFE70798AF
:10066000019A00EB8201089850F822200220002312
:1006700000F0B4FEFFE7019801300190EAE700F0D6
:10068000A3FE0AB080BD000080B588B00790069137
:1006900040F28000C2F20000059006980F2801D0B9
:1006A000FFE78BE10798C0780138014600910628E2
:1006B00000F283810099DFE811F00700A400D20066
:1006C000F9001C011D017F0105980068079949790F
:1006D000884240F09580FFE70798069900F0E8FA15
:1006E000012879D1FFE70799C020087107980630E3
:1006F00003F070FD049007980A3003F06BFD03903F
:1007000004980021C4F20C2103F01EFE28B9FFE773
:100710000020C4F20C2004900DE004980021CCF2DB
:100720000C2103F00AFE28B9FFE70020CCF20C20D0
:100730000490FFE7FFE70598D0F88410049803F0D1
:1007400085FD049004980021C4F2B43103F0FCFD4F
:1007500040B9FFE704980021CCF2B43103F076FDF4
:1007600004900EE00498002103F0E7FD40B9FFE794
:1007700004980021C4F2B43103F068FD0490FFE74F
:10078000FFE70598D0F88810039803F05FFD039009
:1007900003980021C4F2B43103F0D6FD40B9FFE75D
:1007A00003980021C4F2B43103F050FD03900EE031
:1007B0000398002103F0C1FD40B9FFE70398002131
:1007C000C4F2B43103F042FD0390FFE7FFE7039961
:1007D000049800F0F7F903E00799E0200871FFE7BB
:1007E0000798069900F044FA079988730799BDF8AD
:1007F000182040F2E010C2F2000002F013FDFFE703
:10080000DCE00598006807994979884226D1FFE71E
:100810000798069900F04CFA01280BD1FFE70799D9
:10082000C02008710799487B48710798407B00F009
:10083000DFF903E00799E0200871FFE707980699C0
:1008400000F016FA079988730799BDF8182040F24E
:10085000E010C2F2000002F0E5FCFFE7AEE0059810
:1008600000680799497988421FD1FFE707980699E0
:1008700000F01EFA012804D1FFE70799C020087193
:1008800003E00799E0200871FFE70798069900F058
:10089000EFF9079988730799BDF8182040F2E01026
:1008A000C2F2000002F0BEFCFFE787E0079806995D
:1008B00000F0FEF9012808D1FFE70799C020087170
:1008C000059800680799487103E00799E0200871CE
:1008D000FFE70798069900F0CBF907998873079905
:1008E000BDF8182040F2E010C2F2000002F09AFCBD
:1008F00064E063E0059800680799497988425AD115
:10090000FFE70798069900F0D3F901283FD1FFE7E8
:100910000799C02008710598043002F0A5FE0599DA
:10092000D1F8841003F088FF02900298002103F0B0
:1009300004FD40B9FFE702980021C4F2B43103F08E
:1009400085FC0290FFE70598443002F08DFE059982
:10095000D1F8881003F070FF01900198002103F096
:10096000ECFC40B9FFE701980021C4F2B43103F078
:100970006DFC0190FFE70798811D029803F032FC9F
:10098000079800F10A01019803F02CFC03E0079995
:10099000E0200871FFE70798069900F069F90799C8
:1009A00088730799BDF8182040F2E010C2F20000E9
:1009B00002F038FCFFE701E000E0FFE708B080BD8F
:1009C00080B582B040F28000C2F200000190019830
:1009D00090F88C0001280BD1FFE7019800F1AB01E2
:1009E00040F2E010C2F200000F2202F01BFCFFE711
:1009F00002B080BD80B584B040F28000C2F2000039
:100A00000390012002A947F60042C0F60002FFF75A
:100A1000EFFD02980399086003990A6840F200000C
:100A2000C2F2000000EB820050F8040CC1F8840010
:100A300003990A6840F24C10C2F2000000EB8200F9
:100A400050F8040CC1F888000399002081F88C004C
:100A500000F020F80398043040F29811C2F200012F
:100A60000091082202F006FE0099039844300C22FF
:100A700002F000FE40F2E010C2F20000019003F02C
:100A8000BDFA019803998D311E2203F0CFFA04B00C
:100A900080BD000080B582B040F28000C2F200004C
:100AA00001900199552081F8AB000199AA2081F8A5
:100AB000AC000199512081F8AD000199052081F821
:100AC000AE000199002081F8AF00019A116882F808
:100AD000B010019981F8B100019981F8B200019933
:100AE00081F8B300019981F8B400019981F8B5004B
:100AF000019981F8B600019981F8B700019981F850
:100B0000B8000198AB300F2100F0B2F8019981F8DC
:100B1000B90002B080BD000080B582B040F2800014
:100B2000C2F20000019000200090FFE70098092821
:100B30001ADCFFE7019890F88C0001280BD1FFE741
:100B4000019800F1AB0140F2E010C2F200000F2268
:100B500002F068FBFFE74FF47A7000F08DFBFFE7CF
:100B6000009801300090E1E702B080BD80B584B00C
:100B7000039040F28000C2F2000002900398C06B24
:100B80000168086820F0010008600398C06B03F05A
:100B90002DFA01900198C0F11E00009002988D304E
:100BA0000099FFF771FD0398C06B01681E20486033
:100BB0000398C06B0168086840F00100086004B049
:100BC00080BD000080B584B00390029140F28000A7
:100BD000C2F20000019001980430039902F068FD10
:100BE00001984430029902F063FD04B080BD00001A
:100BF00080B584B0039040F28000C2F20000029001
:100C000003980299086003980190012001A947F612
:100C10000042C0F60002FFF707FD0299086881F85C
:100C2000B0000298AB300F2100F022F8029981F851
:100C3000B90004B080BD000080B582B040F28000F1
:100C4000C2F200000190019890F88C0048B9FFE7CB
:100C50000198043002F050FD0198443002F04CFD40
:100C6000FFE70199012081F88C0002B080BD0000EF
:100C700084B00390029100208DF807000090FFE7F8
:100C800000980299013988420DDAFFE7039800992C
:100C9000415C9DF8070008448DF80700FFE70098C5
:100CA00001300090ECE79DF8070004B070470000A9
:100CB00085B00390029100208DF807000090FFE7B7
:100CC00000980299013988420DDAFFE703980099EC
:100CD000415C9DF8070008448DF80700FFE7009885
:100CE00001300090ECE79DF80700039A0299114447
:100CF00011F8011C884203D1FFE70120049002E0B3
:100D000000200490FFE7049805B0704783B001907D
:100D100000208DF80300019890F8210002280DD0E2
:100D2000FFE7019904208863FFE70199002081F81B
:100D30002000FFE701208DF80B0021E001980168F9
:100D4000086820F00E00086001980168086820F02B
:100D5000010008600198C16B026C0120904048605E
:100D6000FFE70199012081F82100FFE701990020A8
:100D700081F82000FFE79DF803008DF80B00FFE7E6
:100D80009DF80B0003B0704780B588B00790002035
:100D90008DF81B00079890F82100022807D0FFE784
:100DA00007990420886301208DF81B0076E00798DE
:100DB0000168086820F00E0008600798016808685C
:100DC00020F001000860079800680821C4F20201C1
:100DD000884203D1FFE70120059047E007980068AB
:100DE0001C21C4F20201884203D1FFE710200490C5
:100DF00039E0079800683021C4F20201884204D12A
:100E0000FFE74FF4807003902AE0079800684421C0
:100E1000C4F20201884204D1FFE74FF480500290EF
:100E20001BE0079800685821C4F20201884204D1EF
:100E3000FFE74FF4803001900CE0079801686C22C6
:100E4000C4F202024FF08070914208BF4FF480104C
:100E50000190FFE701980290FFE702980390FFE7F7
:100E600003980490FFE704980590FFE70598042194
:100E7000C4F2020108600799012081F82100FFE710
:100E80000799002081F82000FFE70798406B20B108
:100E9000FFE70798416B8847FFE7FFE79DF81B00D6
:100EA00008B080BD80B58EB00D900D98C06B006805
:100EB0000C900D98006800680B900C980D99096CC7
:100EC000C8404007002875D5FFE79DF82C00400773
:100ED00000286FD5FFE70D9800680068800600289D
:100EE00007D4FFE70D980168086820F00400086047
:100EF000FFE70D9800680821C4F20201884203D17F
:100F0000FFE704200A9047E00D9800681C21C4F216
:100F10000201884203D1FFE74020099039E00D9893
:100F200000683021C4F20201884204D1FFE74FF487
:100F3000806008902AE00D9800684421C4F2020104
:100F4000884204D1FFE74FF4804007901BE00D98E2
:100F500000685821C4F20201884204D1FFE74FF42F
:100F6000802006900CE00D9801686C22C4F2020209
:100F70004FF08060914208BF4FF480000690FFE779
:100F800006980790FFE707980890FFE708980990F0
:100F9000FFE709980A90FFE70A980421C4F20201CA
:100FA00008600D98C06A20B1FFE70D98C16A8847B4
:100FB000FFE7B8E00C980D99096CC840800700283D
:100FC00040F18080FFE79DF82C008007002879D54C
:100FD000FFE70D9800680068800600280BD4FFE743
:100FE0000D980168086820F00A0008600D9901203A
:100FF00081F82100FFE70D9800680821C4F2020182
:10100000884203D1FFE70220059047E00D98006871
:101010001C21C4F20201884203D1FFE72020049082
:1010200039E00D9800683021C4F20201884204D1F1
:10103000FFE74FF4007003902AE00D980068442108
:10104000C4F20201884204D1FFE74FF4005002903D
:101050001BE00D9800685821C4F20201884204D1B7
:10106000FFE74FF4003001900CE00D9801686C220E
:10107000C4F202024FF00070914208BF4FF400101A
:101080000190FFE701980290FFE702980390FFE7C5
:1010900003980490FFE704980590FFE70598042162
:1010A000C4F202010860FFE70D99002081F82000DA
:1010B000FFE70D98806A20B1FFE70D98816A8847A5
:1010C000FFE72FE00C980D99096CC8400007002835
:1010D00027D5FFE79DF82C000007002821D5FFE762
:1010E0000D980168086820F00E0008600D98C26B2A
:1010F000016C012000FA01F151600D9988630D998E
:1011000081F82100FFE70D99002081F82000FFE71A
:101110000D98006B20B1FFE70D98016B8847FFE742
:10112000FFE7FFE7FFE70EB080BD000083B001904E
:1011300000200090019820B9FFE701208DF80B00F6
:1011400047E0019908684FF6F872CBF6FD7210443B
:101150004CF6CD42CCF6CC42A0FB02026FF003006D
:1011600000EA9200086401990020C4F20200C863FA
:101170000199022081F82100019800680068009020
:10118000009843F6F0718843009001994868D1F8BF
:1011900008C0CB680A6940EA0C00184310434A694A
:1011A00010438A691043C9690143009808430090BD
:1011B0000098019909680860019900208863019AE4
:1011C000012182F82110019981F820008DF80B008F
:1011D000FFE79DF80B0003B07047000080B586B0B4
:1011E000049003910292019300208DF80300FFE721
:1011F000049890F82000012804D1FFE702208DF820
:10120000170034E00499012081F82000FFE7FFE790
:10121000049890F8210001281AD1FFE704990220D0
:1012200081F8210004990020886304980168086807
:1012300020F00100086004980399029A019BFFF7CF
:1012400047F804980168086840F00100086009E068
:10125000FFE70499002081F82000FFE702208DF8C5
:101260000300FFE79DF803008DF81700FFE79DF8E6
:10127000170006B080BD000080B584B0039000F078
:1012800001FB0290039801900198013048B1FFE7FB
:1012900040F21400C2F20000017801980844019065
:1012A000FFE7FFE700F0EEFA0299401A0199884241
:1012B00001D2FFE7F6E704B080BD000080B586B03C
:1012C0000490039101208DF80B0000200190FFE7AE
:1012D00040F22820C2F20000007E012804D1FFE77E
:1012E00002208DF817006AE040F22821C2F20001C6
:1012F00001200876FFE7FFE704980068022819D16B
:10130000FFE74CF25030FFF7E7F890B9FFE7012014
:10131000FFF710F84CF25030FFF7DEF88DF80B00B5
:1013200042F21001C4F20201086820F004000860D3
:10133000FFE737E04CF25030FFF7CEF888BBFFE70D
:1013400003994FF0FF300860049880680190FFE730
:101350000198049A9168D26801EB822188421FD2D9
:10136000FFE70198FEF7FCFF4CF25030FFF7B4F8AE
:101370008DF80B0042F21001C4F20201086820F05F
:10138000020008609DF80B0020B1FFE70198039967
:10139000086005E0FFE7019800F580600190D7E75D
:1013A000FFE7FFE7FFE740F22821C2F2000100203B
:1013B0000876FFE79DF80B008DF81700FFE79DF812
:1013C000170006B080BD000042F21001C4F2020115
:1013D000086840F0800008600020704780B588B041
:1013E000069005910393029201208DF807000020DA
:1013F0008DF806008DF80500FFE740F22820C2F2C4
:101400000000007E012804D1FFE702208DF81F00B4
:1014100076E040F22821C2F2000101200876FFE7C1
:10142000FFE74CF25030FFF757F88DF807009DF8B2
:101430000700002857D1FFE70698012804D1FFE7ED
:1014400001208DF805000CE00698022804D1FFE782
:1014500002208DF8050003E004208DF80500FFE769
:10146000FFE700208DF80600FFE79DF806009DF8D5
:101470000510884236DAFFE705989DF806C000EBB4
:101480004C000299039A4FEA0C1E2023A3EB0C1385
:1014900002FA03F321FA0EF119436FF01F0303EB75
:1014A0000C13DA40002B58BF114689B2FEF774FFC7
:1014B0004CF25030FFF710F88DF8070042F210019F
:1014C000C4F20201086820F0010008609DF80700DE
:1014D00008B1FFE706E0FFE79DF8060001308DF850
:1014E0000600C2E7FFE7FFE740F22821C2F2000151
:1014F00000200876FFE79DF807008DF81F00FFE742
:101500009DF81F0008B080BD81B000208DF8030059
:1015100042F21000C4F202000068000600281CD548
:10152000FFE742F20401C4F2020140F22310C4F2C8
:101530006750086048F6AB10CCF6EF50086042F2F6
:101540001000C4F2020000680006002804D5FFE77E
:1015500001208DF80300FFE7FFE79DF8030001B0CD
:101560007047000090B00F900E9100200D900990F0
:10157000FFE70E9800680D99C840002800F07F81B1
:10158000FFE70D99012088400C900E9800680C9997
:1015900008400B900B980C99884240F06C81FFE753
:1015A0000E9840680590002851D0FFE70598012863
:1015B0003AD0FFE7059802283FD0FFE705980328B7
:1015C0005FD0FFE70598112832D0FFE70598122871
:1015D00038D0FFE705980021C1F21101884236D0CA
:1015E000FFE705980021C1F2120188422FD0FFE7E2
:1015F00005980021C1F22101884228D0FFE7059813
:101600000021C1F22201884221D0FFE70598002184
:10161000C1F2310188421AD0FFE705980021C1F2DA
:101620003201884213D02FE00E98C06809902CE058
:101630000E98C0680430099027E00E98C068083002
:10164000099022E00E98C0680C3009901DE00E98B9
:10165000806818B9FFE70420099011E00E988068AF
:10166000012806D1FFE7082009900C980F9908611E
:1016700005E0082009900C980F994861FFE7FFE703
:1016800003E00020099000E0FFE70B98FF2803D853
:10169000FFE70F98049003E00F9804300490FFE7F1
:1016A000049808900B98FF2804D8FFE70D98800055
:1016B000039006E00D996FF01F0000EB810003908E
:1016C000FFE70398079008980068079A0F21914058
:1016D0008843099991400843089908600E98C07999
:1016E000C006002840F1C680FFE7FFE741F218007E
:1016F000C4F20200016841F001010160006800F0DD
:10170000010006900698FFE70D9820F003000821DD
:10171000C4F2010140580A900D9800F003008100C6
:101720000F2000FA01F10A9888430A900F9840F6BA
:101730000001C4F20101884203D1FFE700200290BA
:1017400026E00F9840F60041C4F20101884203D11F
:10175000FFE70120019018E00F9841F20001C4F268
:101760000101884203D1FFE7022000900AE00F99AF
:1017700041F20042C4F201020420914208BF03205A
:101780000090FFE700980190FFE701980290FFE7C3
:1017900002980D9901F00301890000FA01F10A98FD
:1017A00008430A900A980D9921F003010822C4F217
:1017B000010288500E988079C006002809D5FFE7FD
:1017C0000B9A40F20841C4F2010108681043086016
:1017D00008E00B9A40F20841C4F201010868904306
:1017E0000860FFE70E9880798006002809D5FFE79A
:1017F0000B9A40F20C41C4F20101086810430860E2
:1018000008E00B9A40F20C41C4F2010108689043D1
:101810000860FFE70E9880798007002809D5FFE768
:101820000B9A40F20441C4F20101086810430860B9
:1018300008E00B9A40F20441C4F2010108689043A9
:101840000860FFE70E988079C00748B1FFE70B9A60
:1018500040F20041C4F2010108681043086008E04A
:101860000B9A40F20041C4F20101086890430860FD
:10187000FFE7FFE7FFE70D9801300D9079E610B024
:101880007047000040F24820C2F200000068704734
:1018900040F21400C2F20000027840F24821C2F285
:1018A00000010868104408607047000080B542F2EB
:1018B0000001C4F20201086840F010000860032033
:1018C00000F096F80F2000F005F800F03BF800203B
:1018D00080BD000080B582B0009040F20800C2F2E6
:1018E0000000006840F21401C2F200010A784FF4CF
:1018F0007A71B1FBF2F1B0FBF1F000F073FD20B1B1
:10190000FFE701208DF8070018E000980F280DD898
:10191000FFE700994FF0FF30002200F04FF80098E9
:1019200040F21801C2F20001086003E001208DF8C6
:10193000070003E000208DF80700FFE79DF807008F
:1019400002B080BD83B0FFE741F21800C4F202008C
:10195000016841F001010160006800F0010002909F
:101960000298FFE7FFE741F21C00C4F202000168A1
:1019700041F080510160006800F0805001900198B2
:10198000FFE7FFE70421C4F2010108680090009816
:1019900020F0E0600090009840F000700090009807
:1019A0000860FFE703B0704780B582B08DF807008C
:1019B0009DF9070002F0AEFB02B080BD80B586B095
:1019C0008DF81700049103920020029002F0BAFBF8
:1019D00002909DF91700019002980499039A01F072
:1019E0001DFD0146019802F0B5FB06B080BD000068
:1019F00080B582B00190019802F0CEFB02B080BDAC
:101A000080B584B002900191029820B9FFE70120CF
:101A10008DF80F001BE1019842F20001C4F20201AF
:101A2000096801F00701884216D9FFE742F2000079
:101A3000C4F20200016821F00701019A114301601C
:101A4000006800F007000199884204D0FFE70120F8
:101A50008DF80F00FBE0FFE7029800788007002870
:101A60002AD5FFE7029800784007002809D5FFE74C
:101A700041F20401C4F20201086840F4E060086029
:101A8000FFE7029800780007002809D5FFE741F238
:101A90000401C4F20201086840F460500860FFE7E6
:101AA00041F20401C4F20201086820F0F000029A39
:101AB000926810430860FFE702980078C00700288A
:101AC00060D0FFE70298406801280ED1FFE741F29D
:101AD0000000C4F2020000688003002804D4FFE77D
:101AE00001208DF80F00B2E021E002984068022842
:101AF0000ED1FFE741F20000C4F20200006880014D
:101B0000002804D4FFE701208DF80F009FE00DE0CE
:101B100041F20000C4F2020000688007002804D4EB
:101B2000FFE701208DF80F0091E0FFE7FFE741F2AA
:101B30000401C4F20201086820F00300029A52680E
:101B400010430860FFF79EFE0090FFE741F204009B
:101B5000C4F20200006800F00C0002994968B0EB82
:101B6000810F0ED0FFE7FFF78DFE0099401A41F27A
:101B70008931884204D3FFE703208DF80F0066E027
:101B8000E4E7FFE7019842F20001C4F202010968AC
:101B900001F00701884216D2FFE742F20000C4F2CA
:101BA0000200016821F00701019A114301600068F9
:101BB00000F007000199884204D0FFE701208DF86A
:101BC0000F0044E0FFE702980078400700280CD59A
:101BD000FFE741F20401C4F20201086820F4E0606A
:101BE000029AD26810430860FFE702980078000765
:101BF00000280DD5FFE741F20401C4F20201086894
:101C000020F46050029A126940EAC2000860FFE7BF
:101C100000F04CF841F20401C4F202010968C9B2B3
:101C20000A0944F62211C0F60001895CC84040F25E
:101C30000801C2F20001086040F21800C2F2000080
:101C40000068FFF747FE00208DF80F00FFE79DF8C2
:101C50000F0004B080BD000040F20800C2F2000096
:101C60000068704780B5FFF7F7FF41F20401C4F246
:101C700002010968C1F3022244F63211C0F60001E4
:101C8000895CC84080BD000080B5FFF7E5FF41F2E8
:101C90000401C4F202010968C1F3C22244F6321100
:101CA000C0F60001895CC84080BD000086B00020FD
:101CB0000590049003900290019041F20400C4F258
:101CC000020000680590059800F00C0001460091A4
:101CD00000283FD0FFE70098042804D0FFE70098D1
:101CE000082806D037E041F20020C0F27A000190C7
:101CF00037E00598C0F3834144F63A10C0F600007F
:101D0000405C02909DF81600C007C0B1FFE741F2A9
:101D10000400C4F202000068C0F3404144F64A10D7
:101D2000C0F60000405C0490029841F20021C0F22D
:101D30007A0148430499B0FBF1F0039007E0029860
:101D400040F60011C0F23D0148430390FFE70398BD
:101D5000019006E0FFE741F20020C0F27A00019016
:101D6000FFE7019806B0704780B586B004900498EC
:101D700020B9FFE701208DF817002EE304980078C2
:101D8000C007002800F0AE80FFE741F20400C4F273
:101D90000200006800F00C00042813D0FFE741F2B5
:101DA0000400C4F20200006800F00C0008281BD1F7
:101DB000FFE741F20400C4F202000068C0030028FB
:101DC00012D5FFE741F20000C4F202000068800370
:101DD000002808D5FFE70498406820B9FFE70120F4
:101DE0008DF81700F9E27CE0FFE704984068B0F551
:101DF000803F09D1FFE741F20001C4F20201086807
:101E000040F48030086032E00498406868B9FFE729
:101E100041F20001C4F20201086820F48030086039
:101E2000086820F48020086020E004984068B0F53D
:101E3000A02F0DD1FFE741F20001C4F202010868B2
:101E400040F480200860086840F4803008600CE0AE
:101E500041F20001C4F20201086820F480300860F9
:101E6000086820F480200860FFE7FFE7FFE7FFE74E
:101E700004984068D0B1FFE7FFF704FD0390FFE747
:101E800041F20000C4F202000068800300280CD474
:101E9000FFE7FFF7F7FC0399401A652804D3FFE733
:101EA00003208DF8170098E2EAE719E0FFF7EAFC53
:101EB0000390FFE741F20000C4F2020000688003D3
:101EC00000280CD5FFE7FFF7DDFC0399401A6528D1
:101ED00004D3FFE703208DF817007EE2EAE7FFE76F
:101EE000FFE7FFE7049800788007002840F18D8025
:101EF000FFE741F20400C4F20200006810F00C0F8A
:101F000013D0FFE741F20400C4F20200006800F0C1
:101F10000C00082829D1FFE741F20400C4F20200B6
:101F20000068C003002820D4FFE741F20000C4F29B
:101F3000020000688007002809D5FFE704980069BF
:101F4000012804D0FFE701208DF8170045E241F297
:101F50000001C4F20201086820F0F800049A5269F6
:101F600040EAC2000860FFE74EE00498006958B3F9
:101F7000FFE70021C4F2422101200860FFF782FC44
:101F80000390FFE741F20000C4F2020000688007FE
:101F900000280CD4FFE7FFF775FC0399401A0328CB
:101FA00004D3FFE703208DF8170016E2EAE741F2B9
:101FB0000001C4F20201086820F0F800049A526996
:101FC00040EAC20008601EE00021C4F24221002065
:101FD0000860FFF757FC0390FFE741F20000C4F2EE
:101FE00002000068800700280CD5FFE7FFF74AFCD5
:101FF0000399401A032804D3FFE703208DF8170044
:10200000EBE1EAE7FFE7FFE7FFE704980078000766
:10201000002848D5FFE70498806918B3FFE740F22D
:102020008041C4F2422101200860FFF72BFC03909D
:10203000FFE741F22400C4F2020000688007002894
:102040000CD4FFE7FFF71EFC0399401A032804D3C2
:10205000FFE703208DF81700BFE1EAE7012001F058
:10206000E3FA1FE040F28041C4F242210020086000
:10207000FFF708FC0390FFE741F22400C4F20200DE
:102080000068800700280CD5FFE7FFF7FBFB0399EA
:10209000401A032804D3FFE703208DF817009CE1C2
:1020A000EAE7FFE7FFE7049800784007002840F1DF
:1020B000D880FFE700208DF8070041F21C00C4F231
:1020C00002000068C000002813D4FFE7FFE741F2D8
:1020D0001C00C4F20200016841F0805101600068F8
:1020E00000F0805000900098FFE701208DF8070075
:1020F000FFE747F20000C4F200000068C0050028B6
:1021000022D4FFE747F20001C4F20001086840F45E
:1021100080700860FFF7B6FB0390FFE747F200000E
:10212000C4F200000068C00500280CD4FFE7FFF7E8
:10213000A9FB0399401A652804D3FFE703208DF813
:1021400017004AE1EAE7FFE7FFE70498C0680128C3
:1021500009D1FFE741F22001C4F20201086840F012
:102160000100086031E00498C06868B9FFE741F2F7
:102170002001C4F20201086820F00100086008682C
:1021800020F0040008601FE00498C06805280DD105
:10219000FFE741F22001C4F20201086840F00400A8
:1021A0000860086840F0010008600CE041F220017E
:1021B000C4F20201086820F001000860086820F0FD
:1021C00004000860FFE7FFE7FFE7FFE70498C06847
:1021D000E0B1FFE7FFF756FB0390FFE741F2200075
:1021E000C4F202000068800700280ED4FFE7FFF762
:1021F00049FB0399401A41F28931884204D3FFE731
:1022000003208DF81700E8E0E8E71BE0FFF73AFB52
:102210000390FFE741F22000C4F20200006880074B
:1022200000280ED5FFE7FFF72DFB0399401A41F276
:102230008931884204D3FFE703208DF81700CCE0F2
:10224000E8E7FFE79DF80700012809D1FFE741F221
:102250001C01C4F20201086820F080500860FFE70A
:10226000FFE70498C069002800F0B380FFE741F25F
:102270000400C4F20200006800F00C00082800F01E
:102280008280FFE70498C06902285CD1FFE76021E3
:10229000C4F2422100200860FFF7F4FA0390FFE740
:1022A00041F20000C4F202000068800100280CD551
:1022B000FFE7FFF7E7FA0399401A032804D3FFE783
:1022C00003208DF8170088E0EAE70498006AB0F56B
:1022D000803F0CD1FFE741F20401C4F2020108681B
:1022E00020F40030049A926810430860FFE741F23E
:1022F0000401C4F20201086820F47410049B1A6AF5
:102300005B6A1A43104308606021C4F24221012035
:102310000860FFF7B7FA0390FFE741F20000C4F24C
:1023200002000068800100280CD4FFE7FFF7AAFA3A
:102330000399401A032804D3FFE703208DF8170000
:102340004BE0EAE71EE06021C4F242210020086071
:10235000FFF798FA0390FFE741F20000C4F2020091
:102360000068800100280CD5FFE7FFF78BFA03997E
:10237000401A032804D3FFE703208DF817002CE050
:10238000EAE7FFE724E00498C069012804D1FFE7E9
:1023900001208DF8170020E041F20400C4F2020091
:1023A00000680290029800F480300499096A88421B
:1023B00008D1FFE7029800F470100499496A884236
:1023C00004D0FFE701208DF8170006E0FFE7FFE7E4
:1023D000FFE700208DF81700FFE79DF8170006B013
:1023E00080BD000080B582B00190019801F096F99F
:1023F00002B080BD81B0009001B0704781B0009004
:1024000001B0704785B003900291FFE7039890F800
:102410003C00012804D1FFE702208DF813005BE0A7
:102420000399012081F83C00FFE7FFE703990220B0
:1024300081F83D00039800684068019003980068A7
:1024400080680090019820F0700001900298016867
:10245000019808430190019803990968486003981E
:10246000006842F60041C4F20101884218D0FFE73B
:1024700003980068B0F1804F12D0FFE7039800681E
:1024800040F20041C4F20001884209D0FFE70398FE
:10249000006840F60001C4F2000188420ED1FFE757
:1024A000009820F08000009002984168009808434E
:1024B00000900098039909688860FFE7039901205C
:1024C00081F83D00FFE70399002081F83C00FFE719
:1024D00000208DF81300FFE79DF8130005B070474A
:1024E00081B0009001B0704780B582B00190019832
:1024F0000068006900F002010020B0EB510F28D005
:10250000FFE701980068C06800F002010020B0EB0E
:10251000510F1DD0FFE7019801686FF002000861BC
:10252000019901200877019800688069800720B12F
:10253000FFE70198FFF7D4FF06E0019800F03EF9AD
:10254000019800F053FAFFE7019900200877FFE7B0
:10255000FFE701980068006900F004010020B0EB7B
:10256000910F29D0FFE701980068C06800F00401CE
:102570000020B0EB910F1ED0FFE7019801686FF0CB
:1025800004000861019902200877019800688069B9
:1025900010F4407F04D0FFE70198FFF7A1FF06E0A9
:1025A000019800F00BF9019800F020FAFFE701997B
:1025B00000200877FFE7FFE701980068006900F056
:1025C00008010020B0EBD10F28D0FFE70198006888
:1025D000C06800F008010020B0EBD10F1DD0FFE76C
:1025E000019801686FF008000861019904200877DC
:1025F00001980068C069800720B1FFE70198FFF7E4
:102600006FFF06E0019800F0D9F8019800F0EEF9AC
:10261000FFE7019900200877FFE7FFE701980068CE
:10262000006900F010010020B0EB111F29D0FFE776
:1026300001980068C06800F010010020B0EB111F85
:102640001ED0FFE7019801686FF010000861019942
:102650000820087701980068C06910F4407F04D012
:10266000FFE70198FFF73CFF06E0019800F0A6F8AD
:10267000019800F0BBF9FFE7019900200877FFE718
:10268000FFE7019800680069C00780B1FFE7019883
:102690000068C068C00748B1FFE7019801686FF0A3
:1026A00001000861019800F0C7FAFFE7FFE7019811
:1026B00000680069C1B20020B0EBD11F13D0FFE762
:1026C00001980068C068C1B20020B0EBD11F09D0EA
:1026D000FFE7019801686FF0800008610198FFF73B
:1026E00089FEFFE7FFE701980068006900F04001FC
:1026F0000020B0EB911F14D0FFE701980068C0687C
:1027000000F040010020B0EB911F09D0FFE70198D5
:1027100001686FF040000861019800F091FAFFE74E
:10272000FFE701980068006900F020010020B0EB8D
:10273000511F14D0FFE701980068C06800F0200125
:102740000020B0EB511F09D0FFE7019801686FF03E
:10275000200008610198FFF751FEFFE7FFE702B094
:1027600080BD000080B586B00590002004900390E5
:102770000290019005980068B0F1804F1CD1FFE7EE
:10278000FFE741F21800C4F20200016841F00401C1
:102790000160006800F0040000900098FFE70C2042
:1027A000019002200290049040F60000C4F2010063
:1027B00001A9FEF7D7FEFFE706B080BD81B000900B
:1027C00001B0704780B586B004900391029200205A
:1027D0008DF80700FFE7049890F83C00012804D129
:1027E000FFE702208DF8170089E00499012081F8A5
:1027F0003C00FFE7FFE7029800900C2800F2708091
:102800000099DFE801F0076D6D6D206D6D6D3A6D1B
:102810006D6D530004980068039901F081F80498E5
:102820000168886940F00800886104980168886937
:1028300020F004008861039802690498016888699F
:102840001043886150E004980068039901F0D0F8C3
:1028500004980168886940F4006088610498016800
:10286000886920F48060886103980269049801688F
:10287000886940EA0220886136E00498006803997C
:1028800001F022F904980168C86940F00800C861A5
:1028900004980168C86920F00400C86103980269BF
:1028A00004980168C8691043C8611DE00498006875
:1028B000039901F075F904980168C86940F4006053
:1028C000C86104980168C86920F48060C8610398F1
:1028D000026904980168C86940EA0220C86103E0FF
:1028E00001208DF80700FFE7FFE70499002081F839
:1028F0003C00FFE79DF807008DF81700FFE79DF803
:10290000170006B080BD000080B582B0009000982E
:1029100020B9FFE701208DF807003FE0009890F80C
:102920003D0040B9FFE70099002081F83C00009885
:1029300000F038F8FFE70099022081F83D00009987
:1029400051F8040B00F058FF0099012081F846006F
:10295000FFE70099012081F83E00009981F83F00CF
:10296000009981F84000009981F84100FFE7FFE7F6
:102970000099012081F84200009981F843000099F4
:1029800081F84400009981F84500FFE70099012093
:1029900081F83D0000208DF80700FFE79DF8070053
:1029A00002B080BD80B584B0039003980068B0F198
:1029B000804F19D1FFE7FFE741F21C00C4F202008B
:1029C000016841F001010160006800F0010002901F
:1029D0000298FFE71C20019000221146FEF7EEFF4F
:1029E0000198FEF7E1FFFFE704B080BD81B00090E1
:1029F00001B0704780B58AB008900791079828B950
:102A0000FFE7089890F83E0005901CE0079804281E
:102A100005D1FFE7089890F83F00049010E0079870
:102A2000082805D1FFE7089890F84000039004E0DB
:102A3000089890F841000390FFE703980490FFE79F
:102A400004980590FFE70598012804D0FFE70120CE
:102A50008DF827007AE0079828B9FFE70899022047
:102A600081F83E001EE00798042806D1FFE7089988
:102A7000022081F83F00029012E00798082806D152
:102A8000FFE70899022081F84000019005E00899CD
:102A9000022081F841000190FFE701980290FFE7D2
:102AA0000298FFE7089800680799012200F01CFFD0
:102AB0000898006842F60041C4F20101884207D13B
:102AC000FFE708980168486C40F400404864FFE75D
:102AD0000898006842F60041C4F20101884218D00B
:102AE000FFE708980068B0F1804F12D0FFE7089820
:102AF000006840F20041C4F20001884209D0FFE7BB
:102B00000898006840F60001C4F20001884212D122
:102B1000FFE708980068806800F0070006900698B4
:102B2000062807D0FFE708980168086840F0010010
:102B30000860FFE706E008980168086840F00100B7
:102B40000860FFE700208DF82700FFE79DF82700C9
:102B50000AB080BD80B584B00390029103980068EC
:102B60000299002200F0C0FE0398006842F600417E
:102B7000C4F2010188421BD1FFE7FFE70398006818
:102B8000006A41F21111084210D1FFE70398006872
:102B9000006A40F24441084207D1FFE70398016808
:102BA000486C20F400404864FFE7FFE7FFE7FFE7D9
:102BB000FFE703980068006A41F21111084210D142
:102BC000FFE703980068006A40F24441084207D1D9
:102BD000FFE703980168086820F001000860FFE73C
:102BE000FFE7FFE7029828B9FFE70399012081F882
:102BF0003E001EE00298042806D1FFE70399012059
:102C000081F83F00019012E00298082806D1FFE702
:102C10000399012081F84000009005E0039901200C
:102C200081F841000090FFE700980190FFE70198CC
:102C3000FFE7002004B080BD81B0009001B0704774
:102C400081B0009001B0704782B00190ADF80210E1
:102C500002B0704781B0009001B0704780B592B06B
:102C60001190119800680068109011980068C06871
:102C70000F901198006840690E9000200D900C9004
:102C8000109800F00F000D900D9888B9FFE79DF89F
:102C90004000800600280AD5FFE79DF83C0080062A
:102CA000002804D5FFE7119801F034F8E9E1FFE7C7
:102CB0000D98002800F0C280FFE79DF83800C0079B
:102CC00038B9FFE7BDF83C0010F4907F00F0B68003
:102CD000FFE79DF84000C00758B1FFE79DF83D00B1
:102CE000C00730B1FFE71199486C40F0010048641B
:102CF000FFE79DF84000400700280BD5FFE79DF84F
:102D00003800C00730B1FFE71199486C40F002006D
:102D10004864FFE79DF84000800700280BD5FFE7D7
:102D20009DF83800C00730B1FFE71199486C40F0BA
:102D300004004864FFE79DF840000007002811D513
:102D4000FFE79DF83C008006002805D4FFE79DF8CA
:102D50003800C00730B1FFE71199486C40F0080017
:102D60004864FFE71198406C002866D0FFE79DF8A3
:102D70004000800600280AD5FFE79DF83C00800649
:102D8000002804D5FFE7119800F0C4FFFFE7119871
:102D900000684069C0F380100C901198406C0007E7
:102DA000002804D4FFE70C9800283ED0FFE71198D4
:102DB00000F052FF119800684069400600282FD5A6
:102DC000FFE7FFE7FFE71198006850E8050F20F0E4
:102DD00040000B90FFE70B991198026842E805103C
:102DE0000028F0D1FFE7FFE71198C06B98B1FFE72B
:102DF0001198C16B43F63940C0F600004863119842
:102E0000C06BFDF7C1FF28B1FFE71198C06B416BA4
:102E10008847FFE703E01198FFF71CFFFFE703E097
:102E20001198FFF717FFFFE706E01198FFF712FF71
:102E3000119900204864FFE7FFE722E11198006B39
:102E4000012840F0FE80FFE79DF84000C006002802
:102E500040F1F780FFE79DF83C00C006002840F1F4
:102E6000F080FFE7FFE700200A90119800680068F3
:102E70000A901198006840680A900A98FFE7119834
:102E8000006840694006002840F18180FFE7119802
:102E9000C06B00684068ADF82600BDF82600002829
:102EA00074D0FFE7BDF826001199898D88426DDA4C
:102EB000FFE7BDF826001199C8851198C06B80699D
:102EC000202858D0FFE7FFE7FFE71198006850E897
:102ED000030F20F480700890FFE7089911980268AA
:102EE00042E803100028F0D1FFE7FFE7FFE7FFE724
:102EF0001198006850E8050F20F001000790FFE7E7
:102F000007991198026842E805100028F0D1FFE700
:102F1000FFE7FFE7FFE71198006850E8050F20F092
:102F200040000690FFE706991198026842E80510F4
:102F30000028F0D1FFE7FFE71199202081F8420037
:102F4000119900200863FFE7FFE71198006850E837
:102F5000030F20F010000590FFE705991198026813
:102F600042E803100028F0D1FFE7FFE71198C06B9B
:102F7000FDF7CCFEFFE71199022048631198818D7F
:102F8000C28D891A89B2FFF75FFEFFE779E01199D8
:102F9000888DC98D401AADF812001198C08D002897
:102FA0004ED0FFE7BDF81200002849D0FFE7FFE749
:102FB000FFE71198006850E8030F20F49070039029
:102FC000FFE703991198026842E803100028F0D146
:102FD000FFE7FFE7FFE7FFE71198006850E8050FFC
:102FE00020F001000290FFE702991198026842E880
:102FF00005100028F0D1FFE7FFE71199202081F8A4
:103000004200119900200863FFE7FFE7119800686C
:1030100050E8030F20F010000190FFE7019911988C
:10302000026842E803100028F0D1FFE7FFE711999A
:10303000022048631198BDF81210FFF705FEFFE764
:103040001FE09DF84000000600280AD5FFE79DF824
:103050003C000006002804D5FFE7119800F06EFF41
:103060000FE09DF84000400600280AD5FFE79DF8D4
:103070003C004006002804D5FFE7119800F036FE1A
:10308000FFE712B080BD000080B582B000900098CC
:1030900020B9FFE701208DF8070040E00098806923
:1030A00008B1FFE700E0FFE7009890F8410040B961
:1030B000FFE70099002081F84000009800F034F804
:1030C000FFE70099242081F8410000980168C86852
:1030D00020F40050C860009800F0D2FE009801680B
:1030E000086920F49040086100980168486920F060
:1030F0002A00486100980168C86840F40050C86020
:10310000009900204864009A202182F84110009A1A
:1031100082F84210009948638DF80700FFE79DF898
:10312000070002B080BD000080B58CB00B9000207D
:103130000A900990089007900B98006843F60001E8
:10314000C4F20101884267D1FFE7FFE741F21800AE
:10315000C4F20200016841F480410160006800F49B
:10316000804006900698FFE7FFE741F21800C4F29E
:103170000200016841F004010160006800F00400F1
:1031800005900598FFE74FF4007007900220089023
:1031900003200A9040F60000C4F20100019007A944
:1031A0000291FEF7DFF9019802994FF480620792CD
:1031B0000022039208920992FEF7D4F9039940F293
:1031C0005410C2F2000004905822C4F202020260BD
:1031D000416081608022C260016141612022826180
:1031E000C161FDF7A3FF18B1FFE7FDF79BF8FFE70B
:1031F000FFE70B9840F25411C2F20001C1630B9833
:103200004862FFE72520009000221146FEF7D6FB1A
:103210000098FEF7C9FBFFE70CB080BD81B00090BD
:1032200001B0704784B002900191ADF8022002987D
:1032300090F84100202826D1FFE7019820B1FFE750
:10324000BDF8020020B9FFE701208DF80F001EE055
:10325000019802990862BDF8020002998884BDF8BD
:1032600002000299C884029900204864029A212130
:1032700082F8411002990A68D16841F08001D1605A
:103280008DF80F0003E002208DF80F00FFE79DF896
:103290000F0004B07047000081B0009001B070478B
:1032A000FFE7FEE780B582B0FFE741F21400C4F209
:1032B0000200016841F001010160006800F00100B6
:1032C00001900198FFE70F20009000221146FEF7C1
:1032D00075FB0098FEF768FB02B080BD82B0FFE787
:1032E00041F21800C4F20200016841F020010160BF
:1032F000006800F0200001900198FFE7FFE741F22D
:103300001800C4F20200016841F004010160006885
:1033100000F0040000900098FFE702B07047000042
:1033200080B58AB00021009109910891079106911A
:103330000591049103910291019140F29810C2F21B
:1033400000004FF08042026047224260816044F6F4
:103350001F62C26001618161FFF7D6FA18B1FFE711
:10336000FCF7E0FFFFE700200890099040F298107A
:10337000C2F2000008A9FFF745F818B1FFE7FCF713
:10338000D1FFFFE76020019000200290039005909C
:1033900040F29810C2F2000001A90822FFF712FAC9
:1033A00018B1FFE7FCF7BEFFFFE740F29810C2F24A
:1033B000000001A90C22FFF705FA18B1FFE7FCF79E
:1033C000B1FFFFE740F29810C2F20000FFF7CAF920
:1033D0000AB080BD80B582B040F2E010C2F20000B9
:1033E000019043F60001C4F2010101604FF416514F
:1033F000416000218160C16001610C2242618161F4
:10340000C161FFF741FE18B1FFE7FCF78BFFFFE753
:1034100002B080BDFFE7FEE7FFE7FEE788B0079058
:1034200006910592079800F0070004900498C0F1F7
:103430000700052803D3FFE70420019004E0049867
:10344000C0F107000190FFE7019803900498043051
:10345000062803D8FFE70020009003E00498033813
:103460000090FFE70098029006980399012202FA63
:1034700001F101390840029B984005999A40013AB0
:103480001140084308B0704780B584B003900291A2
:103490000192029803990860019803994860039982
:1034A000002081F834000399C862039A4AF200218F
:1034B000C0F24A419160039A44F61F61D160039AB9
:1034C0006021116103998861039908620398322190
:1034D00000F03CF804B080BD80B586B00590049142
:1034E00004980599C96A00F013FF08B1FFE72BE0C3
:1034F000059890F834008DF80F00059800F07CF8DE
:1035000004980599C862059902910868C96A0191F1
:10351000C068013001F048F80146019801F0C0F898
:1035200001F022F802994861059A02F11001106831
:103530005268FFF747F99DF80F00012804D1FFE713
:10354000059800F045F8FFE706B080BD80B584B06F
:103550000390029102980399096B884201D1FFE719
:1035600033E0039890F834008DF80700029828B9EA
:10357000FFE703980021FFF7AFFF26E0039800F074
:103580003BF802980399086303980168C068C86013
:10359000039801688068CA680132B0FBF2F0029AB1
:1035A000B0FBF2F00138486003980068FFF7ACF90F
:1035B0000398C16AFFF790FF9DF80700012804D126
:1035C000FFE7039800F004F8FFE704B080BD0000B7
:1035D00080B582B00190019890F8340050B9FFE7AF
:1035E000019908684968FFF705FA0199012081F8F7
:1035F0003400FFE702B080BD80B582B00190019831
:1036000090F8340001280AD1FFE701990868496859
:10361000FFF7A0FA0199002081F83400FFE702B01B
:1036200080BD00007047000082B00190019840F218
:103630000801C2F200010968C90844F6D352C1F278
:103640006202A1FB0221890948430090FFE700BF05
:10365000FFE70098411E00910028F8D1FFE702B073
:10366000704700007047000081B000900098806BA8
:1036700001B0704780B584B0039002910192039924
:10368000002081F83C0003980299019AFFF7FCFEA4
:1036900003983221FFF75AFF039800F02DF80398A2
:1036A0000021C4F2C82100F003F804B080BD00007E
:1036B00080B584B0039002910298039988630298C0
:1036C0000021C4F2AF3100F059FE0021C4F2FA41EA
:1036D00000F0E6FF0021C4F2FA3100F0B7FD44F239
:1036E0000001C4F29C6100F049FE01900398019929
:1036F000FFF7F2FE04B080BD80B582B00190019862
:1037000090F83C0020B9FFE70198FFF761FFFFE761
:103710000199012081F83C0002B080BD80B582B0E3
:10372000009000980138B0F1807F03D3FFE70120BB
:10373000019019E0009801384EF21401CEF2000118
:1037400008604FF0FF300F2100F004FD4EF2180129
:10375000CEF20001002008604EF21002CEF200020C
:10376000072111600190FFE7019802B080BD0000C1
:1037700080B5FEF78DF880BD80B590B006A80090AA
:103780002821FCF737FD0098002305930493039349
:1037900002930193012206924FF48031079108931E
:1037A0000A9202220D920E914FF4E0110F91FEF752
:1037B000DBFA18B1FFE7FCF7B5FDFFE70F2001903A
:1037C00002210291002003904FF480620492059040
:1037D00001A8FEF715F918B1FFE7FCF7A3FDFFE715
:1037E00010B080BD7047000080B540F29810C2F262
:1037F0000000FEF779FE80BD83B00290019102982F
:1038000000680090029842F60041C4F2010188422B
:1038100015D0FFE70298B0F1804F10D0FFE7029873
:1038200040F20041C4F20001884208D0FFE702984C
:1038300040F60001C4F2000188420AD1FFE7009877
:1038400020F07000009001984168009808430090B3
:10385000FFE7029842F60041C4F20101884215D008
:10386000FFE70298B0F1804F10D0FFE7029840F2D6
:103870000041C4F20001884208D0FFE7029840F6F8
:103880000001C4F2000188420AD1FFE7009820F449
:10389000407000900198C168009808430090FFE7CD
:1038A000009820F080000199496908430090009831
:1038B00002990860019880680299C86201980068BE
:1038C00002998862029842F60041C4F201018842DE
:1038D00005D1FFE70198006902990863FFE70299A3
:1038E0000120486103B0704784B0039002910192B7
:1038F000029800F01F01012088400090009A03996F
:10390000086A904308620198029901F01F0100FAC9
:1039100001F20399086A1043086204B0704700007E
:1039200085B0049003910498006A01900499086A94
:1039300020F00100086204984068009004988069B3
:103940000290029820F070000290029820F003008C
:10395000029003980168029808430290019820F0B1
:10396000020001900398816801980843019004982F
:1039700042F60041C4F2010188420ED1FFE70198EE
:1039800020F0080001900398C16801980843019055
:10399000019820F004000190FFE7049842F60041EE
:1039A000C4F20101884213D1FFE7009820F480702F
:1039B0000090009820F400700090039841690098EE
:1039C0000843009003988169009808430090FFE73E
:1039D00000980499486002980499886103984068A7
:1039E0000499486301980499086205B07047000083
:1039F00085B0049003910498006A01900499086AC4
:103A000020F01000086204984068009004988069D3
:103A10000290029820F4E0400290029820F4407056
:103A2000029003980168029840EA012002900198F0
:103A300020F02000019003988168019840EA01106D
:103A40000190049842F60041C4F2010188420FD16E
:103A5000FFE7019820F0800001900398C168019869
:103A600040EA01100190019820F040000190FFE72A
:103A7000049842F60041C4F20101884215D1FFE7E3
:103A8000009820F480600090009820F4006000907E
:103A900003984169009840EA810000900398816989
:103AA000009840EA81000090FFE700980499486080
:103AB0000298049988610398406804998863019882
:103AC0000499086205B0704785B00490039104988A
:103AD000006A01900499086A20F4807008620498D2
:103AE000406800900498C0690290029820F070002D
:103AF0000290029820F00300029003980168029857
:103B000008430290019820F40070019003988168A6
:103B1000019840EA01200190049842F60041C4F265
:103B2000010188420FD1FFE7019820F40060019065
:103B30000398C168019840EA01200190019820F49F
:103B400080600190FFE7049842F60041C4F2010151
:103B5000884215D1FFE7009820F48050009000982B
:103B600020F40050009003984169009840EA011049
:103B7000009003988169009840EA01100090FFE7E7
:103B800000980499486002980499C86103984068B5
:103B90000499C86301980499086205B07047000051
:103BA00085B0049003910498006A01900499086A12
:103BB00020F4805008620498406800900498C0691E
:103BC0000290029820F4E0400290029820F44070A5
:103BD000029003980168029840EA0120029001983F
:103BE00020F40050019003988168019840EA013068
:103BF0000190049842F60041C4F2010188420BD1C1
:103C0000FFE7009820F480400090039841690098F5
:103C100040EA81100090FFE70098049948600298FC
:103C20000499C8610398406804990864019804994C
:103C3000086205B07047000080B582B0019001981D
:103C4000406A009000990020C8850099C8840098B7
:103C5000FFF700F802B080BD84B00390FFE7FFE7F4
:103C60000398006850E8030F20F490700290FFE77B
:103C700002990398026842E803100028F0D1FFE798
:103C8000FFE7FFE7FFE70398006850E8050F20F023
:103C900001000190FFE701990398026842E80510CE
:103CA0000028F0D1FFE7FFE70398006B012814D14B
:103CB000FFE7FFE7FFE70398006850E8030F20F0F5
:103CC00010000090FFE700990398026842E8031093
:103CD0000028F0D1FFE7FFE7FFE70399202081F8F4
:103CE000420003990020086304B0704780B582B099
:103CF000019001980168C86820F04000C8600199EF
:103D0000202081F841000198FFF7C6FA002002B098
:103D100080BD000080B586B00490049890F8420001
:103D2000222840F0A480FFE704988068B0F5805F07
:103D300015D1FFE70498006988B9FFE700200390D8
:103D40000498806A02900498006840686FF35F20CE
:103D5000029908800499886A0230886225E00498F4
:103D6000806A03900020029004988068B0F5805F1C
:103D700008D0FFE70498806850B9FFE7049800690D
:103D800030B9FFE70498006840680399087007E0BD
:103D900004980068406800F07F0003990870FFE70E
:103DA0000499886A01308862FFE70499C88D013858
:103DB000C8850004002856D1FFE704980168C86848
:103DC00020F02000C86004980168C86820F4807062
:103DD000C86004980168486920F0010048610499AE
:103DE000202081F842000499002048630498006B69
:103DF000012830D1FFE7049900200863FFE7FFE7BF
:103E00000498006850E8030F20F010000190FFE7CD
:103E100001990498026842E803100028F0D1FFE7F6
:103E2000FFE7049800680068C00600280ED5FFE789
:103E3000FFE7002000900498006800680090049854
:103E40000068406800900098FFE7FFE70498818DC4
:103E5000FEF7FAFE03E00498FFF7E0F9FFE7002021
:103E60008DF8170007E000208DF8170003E002200E
:103E70008DF81700FFE79DF8170006B080BD000021
:103E800080B584B0039003980068006920F4405026
:103E9000039A1168D26810430861039988680A6917
:103EA000496910430843029003980068C06841F2D2
:103EB0000C6188430299084303990968C860039814
:103EC0000068406920F44070039A116892691043B9
:103ED00048610398006843F60001C4F2010188427A
:103EE00004D1FFE7FDF7D0FE019003E0FDF7BAFE35
:103EF0000190FFE7019819214843039A116852681D
:103F00009200B0FBF2FC48F21F52C5F2EB12ACFB80
:103F100002304309642003FB10CC322000EB0C106C
:103F2000A0FB0202F02000EA521000EB0310C2F3E3
:103F300043121044886004B080BD000083B001903B
:103F4000019890F8410021283AD1FFE70198806854
:103F5000B0F5805F13D1FFE70198006978B9FFE7FA
:103F60000198006A0090009800886FF35F20019923
:103F7000096848600199086A0230086208E0019AFD
:103F8000106A411C11620078019909684860FFE7D6
:103F90000199C88C0138C884000468B9FFE701980A
:103FA0000168C86820F08000C86001980168C8688E
:103FB00040F04000C860FFE700208DF80B0003E0F0
:103FC00002208DF80B00FFE79DF80B0003B070474F
:103FD00080B582B040F2E010C2F200000190FEF71E
:103FE0003DFE019800F05EF802B080BD81B0009007
:103FF00000980068406880B201B0704782B00190BC
:10400000FFE7002000900198006800680090019888
:104010000068406800900098FFE701980168C86850
:1040200040F01000C86002B07047000080B586B054
:10403000049003910292049890F84200202828D11D
:10404000FFE7039818B1FFE7029820B9FFE70120C6
:104050008DF8170021E0039804998862029804996A
:10406000888504990020486404980168C06B043175
:10407000039A029BFDF7B2F88DF8070004980168D7
:10408000486940F0400048619DF807008DF817002E
:1040900003E002208DF81700FFE79DF8170006B037
:1040A00080BD000080B582B0019001980068006872
:1040B000C006002818D5FFE701980068C068C00650
:1040C000002811D5FFE7FFE7002000900198006865
:1040D0000068009001980068406800900098FFE731
:1040E000019800F003F8FFE702B080BD80B582B010
:1040F0000190019840F2E011C2F20001884204D11F
:10410000FFE70198FCF732FDFFE702B080BD000039
:10411000FFE7FEE781B08DF803009DF9030000285A
:104120000ED4FFE79DF9031001F01F02012090401B
:104130004A094EF20011CEF2000141F82200FFE7D9
:1041400001B070474EF60C50CEF200000068C0F38C
:104150000220704782B08DF8070000919DF907009A
:1041600000280AD4FFE7009800019DF907104EF2DD
:104170000042CEF2000288540BE0009800019DF846
:10418000071001F00F014EF61452CEF200028854CF
:10419000FFE702B07047000083B00290029800F081
:1041A000070000904EF60C51CEF200010868019015
:1041B00001984FF6FF02104001900198009A40EAE2
:1041C00002200022C0F2FA521043019001980860C8
:1041D00003B0704782B00190019800680090009889
:1041E00002B0704783B0029001910298009001994B
:1041F0000098086003B0704780B582B0002001903D
:10420000FDF754FBFFF7B8FAFFF768F8FFF74AF835
:10421000FFF786F8FFF7DEF8FCF7ECFB40F20C0046
:10422000C2F2000040F21001C2F200010968006809
:10423000FCF7C8FCFCF700FDFCF76EFCFFE74EF650
:104240006020FDF719F8FCF7BBFBF8E790EA010FD7
:1042500048BF81F0004100F1F682421A3CBF801A4B
:1042600089184FEAD052A2EBD1534FF07F4C1CEA91
:10427000410F18BF9CEA026F00F03B804FF0004CEA
:104280004CEA00204CEA012121FA03FC10EB0C0C53
:104290001ED202F1FF325FEA1C2040EBC25038BF51
:1042A00070471CF07F0F4FEA400C18BFBCF17F4FE6
:1042B00038BF7047C3F12003994008BF20F00100C8
:1042C000BCF17F4F38BF7047A0F1C04000F0AFBADB
:1042D0004FEA3C00000A40EBC25028BF1CF0FF0F21
:1042E0004FEA400CE6D018BFBCF17F4F38BF704793
:1042F000EAE79CEA026F05D010EA5C0F08BF00F005
:104300000040704710B500F04CFA00BF64FBBE3EA1
:1043100010B500F0F5F80CBF0120002010BD10B55D
:1043200000F0EEF814BF0120002010BD10B500F021
:104330004FF98CBF0120002010BD10B500F048F9E6
:104340002CBF0120002010BD10B500F075F994BFFE
:104350000120002010BD10B500F06EF934BF01201F
:10436000002010BD401058BFC0F14040491058BF58
:10437000C1F140418142EFF3008070474FF47F0C60
:104380001CEAD0121EBF1CEAD11392EA0C0F93EA6A
:104390000C0F00F0858090EA010F48BF42F4807254
:1043A00040F4000C41F400002CF07F4120F07F40ED
:1043B00000B5A2EB030281420FF2081CACEB504E99
:1043C0009EF800E0C0F100004FEA4E0E00FB0EFC2C
:1043D00038BF49004FEA2C1C0CFB0EF34FEACE1EEF
:1043E0000EEB635E4FEA112C0EFB0CFC4FEAC12171
:1043F0004FEA1C5300FB031102F5FA024FEA112C9D
:104400000EFB0CFC4FEA01314FEADC4C00FB0C11B7
:1044100042EB2242C14228BF09184CEB03335DF83E
:1044200004EB10EB410143EBC250B2F57C0F38BFF7
:10443000704729D512F0F00F1CBF00F1C04000F00A
:1044400000407047008182838485868788898B8CB1
:104450008D8E8F919293959697999A9C9D9FA0A2ED
:10446000A3A5A7A8AAACAEB0B2B3B5B7B9BCBEC03D
:10447000C2C5C7C9CCCED1D4D7D9DCDFE2E6E9ECDE
:10448000F0F3F7FAFE0000004FEA400C0CF1807CDC
:10449000BCF17E4F28BF7047B0F1C04000F0C7B9F3
:1044A0000CEAD11390EA010F48BF42F480726245D2
:1044B00038BF634507D213F47F0F16D080EA01009E
:1044C00000F00040704710B500F06BF9097EFC3E2B
:1044D00000F005B880EA010000F00040704780EA73
:1044E000010000F0004000F0A2B912F47F0F04BFF9
:1044F0000248704780EA010000F099B90000C07FCF
:1045000050EA010C00F113801CF5000F58BFBCF5F8
:10451000000F01D48842704707D710F5000F58BF2D
:1045200011F5000F15D488427047894270471CF579
:10453000000F04D5BCF5000FF7D5814270474FF04E
:10454000807C1CEB400F38BF1CEB410F01D2814235
:10455000704710B500F025F9922449004FF0005043
:104560004FF08051FFF7FEBEC10DD1F19E0206DB78
:104570004FEA002343F0004323FA02F07047004261
:1045800007D54FEA4001B1F1FE4F02D24FF00000D3
:10459000704710B500F005F949922480002070475B
:1045A0006FEA200070470000B0FA80F310FA03F2BF
:1045B000C3F19D030AD0D90501EB1220530638BF81
:1045C000704700F1010008BF20F0010070470000B3
:1045D00050EA010C00F113801CF5000F58BFBCF528
:1045E000000F01D48842704707D710F5000F58BF5D
:1045F00011F5000F15D488427047894270471CF5A9
:10460000000F04D5BCF5000FF7D5814270474FF07D
:10461000807C1CEB400F38BF1CEB410F01D2814264
:10462000704710B500F0BDF8922449004FF080505B
:104630004FF00051FFF796BE50EA010C00F11380D5
:104640001CF5000F58BFBCF5000F01D4884270471D
:1046500007D710F5000F58BF11F5000F15D4884289
:104660007047894270471CF5000F04D5BCF5000F58
:10467000F7D5814270474FF0807C1CEB400F38BF6C
:104680001CEB410F01D28142704710B500F089F850
:10469000922449004FF000504FF08051FFF762BE66
:1046A0004FF47F0C1CEAD0121EBF1CEAD11392EA11
:1046B0000C0F93EA0C0F00F0478090EA010F48BFFF
:1046C00042F480724FF0004C4CEA00204CEA012189
:1046D00002EB0302A0FB0113A2F50002002918BFA0
:1046E00043F001035B0028BF4FEA330342EB224251
:1046F0005FEA132C4CEBC2502EBFBCEB436FB2F5FC
:104700007C0F70474FEA036CBCF1004F08BF20F0EC
:104710000100B2F57C0F38BF70470BD582F0FF0265
:1047200012F5803FC8BF704700F1C040D8BF00F00D
:104730000040704700F5000C5FEA4C0C48BF704722
:10474000B0F1C04000F073B80CEAD11390EA010F49
:1047500048BF42F48072624538BF634504D280EAA4
:10476000010000F00040704710B500F01AF800BFDB
:104770008900013E00F007B800F009B85FEA410C7B
:104780005FEA1C6C08D080EA010000F050B85FEAD4
:10479000400C5FEA1C6CF6D14FF00040A0F58000A1
:1047A00070470EF1020E2EF0030E5EF8044B244209
:1047B00004D44FEA4102B2F17F4F11D84FEA4003CF
:1047C000B3F17F4F0CD80ED14FEAD07C0CEB4C0CE0
:1047D0000CF1020CB2F17F4F08BF4CEBD17C04E02E
:1047E0004FF0080C01E04FEAD17C0CEB4C0324FAAB
:1047F00003F404F00704B4F1040C06D20EEB840CAD
:10480000BDE810404CF0010C6047DFE80CF00708F1
:1048100002024FF00040A0F5800010BD08464200A3
:1048200018BFD2F1807288BF00F0004010BDFF2198
:1048300041EAD050C005704790EA010F48BF81F0AF
:1048400000413FF50AAD421A04D882F00042A0EBC5
:10485000020011444FEAD052A2EBD1534FF07F4CEB
:104860001CEA410F18BF9CEA026F4AD04FF0004C7F
:104870004CEA00204CEA012121FA03FCB0EB0C0CBD
:104880000FD412F0FE0F36D05FEA4C001DD5001297
:1048900040EBC25038BF70471CF03F0F18BF704745
:1048A0000BE05FEA1C20A2F1010240EBC25038BFCE
:1048B00070471CF07F0F18BF7047C3F12003994069
:1048C00014BF401E20F0010070474FEA12238008F9
:1048D00008BF7047B0FA80FCA2EB0C02CCF1280CA8
:1048E00060FA0CF093EA122F04BF00EBC25070473D
:1048F0004FEAC3707047130A5FEADC1008BF7047C5
:10490000F6E79CEA026F04D010EA5C0F08BF0020B3
:10491000704710B5FFF745FF40DFF63E81F00040DD
:1049200070470000000000000000010203040607B9
:104930000809000000000102030402030405060741
:1049400008090A0B0C0D0E0F101001027049000827
:1049500000000020200000005001000890490008DD
:104960002000002030080000700100080000000056
:104970000000C8420000C8420024F4000000C84201
:104980000000C8420100000010000000000000000C
:04000005080000ED02
:00000001FF
